{"contracts/crowdfunding.sol":{"CrowdFactory":{"abi":[{"anonymous":false,"inputs":[{"indexed":false,"internalType":"string","name":"projTitle","type":"string"},{"indexed":false,"internalType":"uint256","name":"goalAmount","type":"uint256"},{"indexed":true,"internalType":"address","name":"ownerWallet","type":"address"},{"indexed":false,"internalType":"address","name":"projAddress","type":"address"},{"indexed":true,"internalType":"uint256","name":"timestamp","type":"uint256"}],"name":"Projectcreated","type":"event"},{"inputs":[{"internalType":"string","name":"projectTitle","type":"string"},{"internalType":"uint256","name":"projgoalAmount","type":"uint256"},{"internalType":"string","name":"projDescript","type":"string"},{"internalType":"address","name":"ownerWallet","type":"address"}],"name":"createProject","outputs":[],"stateMutability":"nonpayable","type":"function"},{"inputs":[{"internalType":"uint256","name":"","type":"uint256"}],"name":"publishedProjs","outputs":[{"internalType":"address","name":"","type":"address"}],"stateMutability":"view","type":"function"},{"inputs":[],"name":"totalPublishedProjs","outputs":[{"internalType":"uint256","name":"","type":"uint256"}],"stateMutability":"view","type":"function"}],"evm":{"bytecode":{"linkReferences":{},"object":"608060405234801561001057600080fd5b50611477806100206000396000f3fe60806040523480156200001157600080fd5b5060043610620000465760003560e01c8063591d0a09146200004b578063a258f2151462000081578063f200e2d814620000a1575b600080fd5b6200006960048036038101906200006391906200026e565b620000c3565b604051620000789190620002e5565b60405180910390f35b6200009f600480360381019062000099919062000495565b62000103565b005b620000ab62000205565b604051620000ba919062000556565b60405180910390f35b60008181548110620000d457600080fd5b906000526020600020016000915054906101000a900473ffffffffffffffffffffffffffffffffffffffff1681565b600084848484604051620001179062000211565b62000126949392919062000606565b604051809103906000f08015801562000143573d6000803e3d6000fd5b5090506000819080600181540180825580915050600190039060005260206000200160009091909190916101000a81548173ffffffffffffffffffffffffffffffffffffffff021916908373ffffffffffffffffffffffffffffffffffffffff160217905550423373ffffffffffffffffffffffffffffffffffffffff167f7fea2b83672c8ba97a6a97840eb5a805b5cde24feabfae1117aadc9c9ebd6ab2878785604051620001f69392919062000661565b60405180910390a35050505050565b60008080549050905090565b610d9c80620006a683390190565b6000604051905090565b600080fd5b600080fd5b6000819050919050565b620002488162000233565b81146200025457600080fd5b50565b60008135905062000268816200023d565b92915050565b60006020828403121562000287576200028662000229565b5b6000620002978482850162000257565b91505092915050565b600073ffffffffffffffffffffffffffffffffffffffff82169050919050565b6000620002cd82620002a0565b9050919050565b620002df81620002c0565b82525050565b6000602082019050620002fc6000830184620002d4565b92915050565b600080fd5b600080fd5b6000601f19601f8301169050919050565b7f4e487b7100000000000000000000000000000000000000000000000000000000600052604160045260246000fd5b62000357826200030c565b810181811067ffffffffffffffff821117156200037957620003786200031d565b5b80604052505050565b60006200038e6200021f565b90506200039c82826200034c565b919050565b600067ffffffffffffffff821115620003bf57620003be6200031d565b5b620003ca826200030c565b9050602081019050919050565b82818337600083830152505050565b6000620003fd620003f784620003a1565b62000382565b9050828152602081018484840111156200041c576200041b62000307565b5b62000429848285620003d7565b509392505050565b600082601f83011262000449576200044862000302565b5b81356200045b848260208601620003e6565b91505092915050565b6200046f81620002c0565b81146200047b57600080fd5b50565b6000813590506200048f8162000464565b92915050565b60008060008060808587031215620004b257620004b162000229565b5b600085013567ffffffffffffffff811115620004d357620004d26200022e565b5b620004e18782880162000431565b9450506020620004f48782880162000257565b935050604085013567ffffffffffffffff8111156200051857620005176200022e565b5b620005268782880162000431565b925050606062000539878288016200047e565b91505092959194509250565b620005508162000233565b82525050565b60006020820190506200056d600083018462000545565b92915050565b600081519050919050565b600082825260208201905092915050565b60005b83811015620005af57808201518184015260208101905062000592565b83811115620005bf576000848401525b50505050565b6000620005d28262000573565b620005de81856200057e565b9350620005f08185602086016200058f565b620005fb816200030c565b840191505092915050565b60006080820190508181036000830152620006228187620005c5565b905062000633602083018662000545565b8181036040830152620006478185620005c5565b9050620006586060830184620002d4565b95945050505050565b600060608201905081810360008301526200067d8186620005c5565b90506200068e602083018562000545565b6200069d6040830184620002d4565b94935050505056fe60806040523480156200001157600080fd5b5060405162000d9c38038062000d9c8339818101604052810190620000379190620002ea565b8360009081620000489190620005db565b50826002819055508160019081620000619190620005db565b5080600460006101000a81548173ffffffffffffffffffffffffffffffffffffffff021916908373ffffffffffffffffffffffffffffffffffffffff16021790555050505050620006c2565b6000604051905090565b600080fd5b600080fd5b600080fd5b600080fd5b6000601f19601f8301169050919050565b7f4e487b7100000000000000000000000000000000000000000000000000000000600052604160045260246000fd5b6200011682620000cb565b810181811067ffffffffffffffff82111715620001385762000137620000dc565b5b80604052505050565b60006200014d620000ad565b90506200015b82826200010b565b919050565b600067ffffffffffffffff8211156200017e576200017d620000dc565b5b6200018982620000cb565b9050602081019050919050565b60005b83811015620001b657808201518184015260208101905062000199565b83811115620001c6576000848401525b50505050565b6000620001e3620001dd8462000160565b62000141565b905082815260208101848484011115620002025762000201620000c6565b5b6200020f84828562000196565b509392505050565b600082601f8301126200022f576200022e620000c1565b5b815162000241848260208601620001cc565b91505092915050565b6000819050919050565b6200025f816200024a565b81146200026b57600080fd5b50565b6000815190506200027f8162000254565b92915050565b600073ffffffffffffffffffffffffffffffffffffffff82169050919050565b6000620002b28262000285565b9050919050565b620002c481620002a5565b8114620002d057600080fd5b50565b600081519050620002e481620002b9565b92915050565b60008060008060808587031215620003075762000306620000b7565b5b600085015167ffffffffffffffff811115620003285762000327620000bc565b5b620003368782880162000217565b945050602062000349878288016200026e565b935050604085015167ffffffffffffffff8111156200036d576200036c620000bc565b5b6200037b8782880162000217565b92505060606200038e87828801620002d3565b91505092959194509250565b600081519050919050565b7f4e487b7100000000000000000000000000000000000000000000000000000000600052602260045260246000fd5b60006002820490506001821680620003ed57607f821691505b602082108103620004035762000402620003a5565b5b50919050565b60008190508160005260206000209050919050565b60006020601f8301049050919050565b600082821b905092915050565b6000600883026200046d7fffffffffffffffffffffffffffffffffffffffffffffffffffffffffffffffff826200042e565b6200047986836200042e565b95508019841693508086168417925050509392505050565b6000819050919050565b6000620004bc620004b6620004b0846200024a565b62000491565b6200024a565b9050919050565b6000819050919050565b620004d8836200049b565b620004f0620004e782620004c3565b8484546200043b565b825550505050565b600090565b62000507620004f8565b62000514818484620004cd565b505050565b5b818110156200053c5762000530600082620004fd565b6001810190506200051a565b5050565b601f8211156200058b57620005558162000409565b62000560846200041e565b8101602085101562000570578190505b620005886200057f856200041e565b83018262000519565b50505b505050565b600082821c905092915050565b6000620005b06000198460080262000590565b1980831691505092915050565b6000620005cb83836200059d565b9150826002028217905092915050565b620005e6826200039a565b67ffffffffffffffff811115620006025762000601620000dc565b5b6200060e8254620003d4565b6200061b82828562000540565b600060209050601f8311600181146200065357600084156200063e578287015190505b6200064a8582620005bd565b865550620006ba565b601f198416620006638662000409565b60005b828110156200068d5784890151825560018201915060208501945060208101905062000666565b86831015620006ad5784890151620006a9601f8916826200059d565b8355505b6001600288020188555050505b505050505050565b6106ca80620006d26000396000f3fe60806040526004361061004a5760003560e01c80632636b9451461004f57806340ea0a941461007a578063bedab4fe14610084578063c59ee1dc146100af578063cbd60d54146100da575b600080fd5b34801561005b57600080fd5b50610064610105565b60405161007191906103bb565b60405180910390f35b61008261010b565b005b34801561009057600080fd5b50610099610280565b6040516100a6919061046f565b60405180910390f35b3480156100bb57600080fd5b506100c461030e565b6040516100d191906103bb565b60405180910390f35b3480156100e657600080fd5b506100ef610314565b6040516100fc919061046f565b60405180910390f35b60025481565b60035460025411610151576040517f08c379a0000000000000000000000000000000000000000000000000000000008152600401610148906104dd565b60405180910390fd5b6000600460009054906101000a900473ffffffffffffffffffffffffffffffffffffffff1673ffffffffffffffffffffffffffffffffffffffff16346040516101999061052e565b60006040518083038185875af1925050503d80600081146101d6576040519150601f19603f3d011682016040523d82523d6000602084013e6101db565b606091505b505090508061021f576040517f08c379a00000000000000000000000000000000000000000000000000000000081526004016102169061058f565b60405180910390fd5b346003600082825461023191906105de565b9250508190555042343373ffffffffffffffffffffffffffffffffffffffff167fcd909ec339185c4598a4096e174308fbdf136d117f230960f873a2f2e81f63af60405160405180910390a450565b6000805461028d90610663565b80601f01602080910402602001604051908101604052809291908181526020018280546102b990610663565b80156103065780601f106102db57610100808354040283529160200191610306565b820191906000526020600020905b8154815290600101906020018083116102e957829003601f168201915b505050505081565b60035481565b6001805461032190610663565b80601f016020809104026020016040519081016040528092919081815260200182805461034d90610663565b801561039a5780601f1061036f5761010080835404028352916020019161039a565b820191906000526020600020905b81548152906001019060200180831161037d57829003601f168201915b505050505081565b6000819050919050565b6103b5816103a2565b82525050565b60006020820190506103d060008301846103ac565b92915050565b600081519050919050565b600082825260208201905092915050565b60005b838110156104105780820151818401526020810190506103f5565b8381111561041f576000848401525b50505050565b6000601f19601f8301169050919050565b6000610441826103d6565b61044b81856103e1565b935061045b8185602086016103f2565b61046481610425565b840191505092915050565b600060208201905081810360008301526104898184610436565b905092915050565b7f474f414c20414348494556454400000000000000000000000000000000000000600082015250565b60006104c7600d836103e1565b91506104d282610491565b602082019050919050565b600060208201905081810360008301526104f6816104ba565b9050919050565b600081905092915050565b50565b60006105186000836104fd565b915061052382610508565b600082019050919050565b60006105398261050b565b9150819050919050565b7f56414c5545204e4f54205452414e534645525245440000000000000000000000600082015250565b60006105796015836103e1565b915061058482610543565b602082019050919050565b600060208201905081810360008301526105a88161056c565b9050919050565b7f4e487b7100000000000000000000000000000000000000000000000000000000600052601160045260246000fd5b60006105e9826103a2565b91506105f4836103a2565b9250827fffffffffffffffffffffffffffffffffffffffffffffffffffffffffffffffff03821115610629576106286105af565b5b828201905092915050565b7f4e487b7100000000000000000000000000000000000000000000000000000000600052602260045260246000fd5b6000600282049050600182168061067b57607f821691505b60208210810361068e5761068d610634565b5b5091905056fea2646970667358221220b8f1ad73ca639cf6aa19db74b465b9562e26ba99341889d631291269d16a3db164736f6c634300080f0033a2646970667358221220cf2e362bd2fd642720a95ffc1a276d1f26cde31034413d36abafddfb63a435e464736f6c634300080f0033","opcodes":"PUSH1 0x80 PUSH1 0x40 MSTORE CALLVALUE DUP1 ISZERO PUSH2 0x10 JUMPI PUSH1 0x0 DUP1 REVERT JUMPDEST POP PUSH2 0x1477 DUP1 PUSH2 0x20 PUSH1 0x0 CODECOPY PUSH1 0x0 RETURN INVALID PUSH1 0x80 PUSH1 0x40 MSTORE CALLVALUE DUP1 ISZERO PUSH3 0x11 JUMPI PUSH1 0x0 DUP1 REVERT JUMPDEST POP PUSH1 0x4 CALLDATASIZE LT PUSH3 0x46 JUMPI PUSH1 0x0 CALLDATALOAD PUSH1 0xE0 SHR DUP1 PUSH4 0x591D0A09 EQ PUSH3 0x4B JUMPI DUP1 PUSH4 0xA258F215 EQ PUSH3 0x81 JUMPI DUP1 PUSH4 0xF200E2D8 EQ PUSH3 0xA1 JUMPI JUMPDEST PUSH1 0x0 DUP1 REVERT JUMPDEST PUSH3 0x69 PUSH1 0x4 DUP1 CALLDATASIZE SUB DUP2 ADD SWAP1 PUSH3 0x63 SWAP2 SWAP1 PUSH3 0x26E JUMP JUMPDEST PUSH3 0xC3 JUMP JUMPDEST PUSH1 0x40 MLOAD PUSH3 0x78 SWAP2 SWAP1 PUSH3 0x2E5 JUMP JUMPDEST PUSH1 0x40 MLOAD DUP1 SWAP2 SUB SWAP1 RETURN JUMPDEST PUSH3 0x9F PUSH1 0x4 DUP1 CALLDATASIZE SUB DUP2 ADD SWAP1 PUSH3 0x99 SWAP2 SWAP1 PUSH3 0x495 JUMP JUMPDEST PUSH3 0x103 JUMP JUMPDEST STOP JUMPDEST PUSH3 0xAB PUSH3 0x205 JUMP JUMPDEST PUSH1 0x40 MLOAD PUSH3 0xBA SWAP2 SWAP1 PUSH3 0x556 JUMP JUMPDEST PUSH1 0x40 MLOAD DUP1 SWAP2 SUB SWAP1 RETURN JUMPDEST PUSH1 0x0 DUP2 DUP2 SLOAD DUP2 LT PUSH3 0xD4 JUMPI PUSH1 0x0 DUP1 REVERT JUMPDEST SWAP1 PUSH1 0x0 MSTORE PUSH1 0x20 PUSH1 0x0 KECCAK256 ADD PUSH1 0x0 SWAP2 POP SLOAD SWAP1 PUSH2 0x100 EXP SWAP1 DIV PUSH20 0xFFFFFFFFFFFFFFFFFFFFFFFFFFFFFFFFFFFFFFFF AND DUP2 JUMP JUMPDEST PUSH1 0x0 DUP5 DUP5 DUP5 DUP5 PUSH1 0x40 MLOAD PUSH3 0x117 SWAP1 PUSH3 0x211 JUMP JUMPDEST PUSH3 0x126 SWAP5 SWAP4 SWAP3 SWAP2 SWAP1 PUSH3 0x606 JUMP JUMPDEST PUSH1 0x40 MLOAD DUP1 SWAP2 SUB SWAP1 PUSH1 0x0 CREATE DUP1 ISZERO DUP1 ISZERO PUSH3 0x143 JUMPI RETURNDATASIZE PUSH1 0x0 DUP1 RETURNDATACOPY RETURNDATASIZE PUSH1 0x0 REVERT JUMPDEST POP SWAP1 POP PUSH1 0x0 DUP2 SWAP1 DUP1 PUSH1 0x1 DUP2 SLOAD ADD DUP1 DUP3 SSTORE DUP1 SWAP2 POP POP PUSH1 0x1 SWAP1 SUB SWAP1 PUSH1 0x0 MSTORE PUSH1 0x20 PUSH1 0x0 KECCAK256 ADD PUSH1 0x0 SWAP1 SWAP2 SWAP1 SWAP2 SWAP1 SWAP2 PUSH2 0x100 EXP DUP2 SLOAD DUP2 PUSH20 0xFFFFFFFFFFFFFFFFFFFFFFFFFFFFFFFFFFFFFFFF MUL NOT AND SWAP1 DUP4 PUSH20 0xFFFFFFFFFFFFFFFFFFFFFFFFFFFFFFFFFFFFFFFF AND MUL OR SWAP1 SSTORE POP TIMESTAMP CALLER PUSH20 0xFFFFFFFFFFFFFFFFFFFFFFFFFFFFFFFFFFFFFFFF AND PUSH32 0x7FEA2B83672C8BA97A6A97840EB5A805B5CDE24FEABFAE1117AADC9C9EBD6AB2 DUP8 DUP8 DUP6 PUSH1 0x40 MLOAD PUSH3 0x1F6 SWAP4 SWAP3 SWAP2 SWAP1 PUSH3 0x661 JUMP JUMPDEST PUSH1 0x40 MLOAD DUP1 SWAP2 SUB SWAP1 LOG3 POP POP POP POP POP JUMP JUMPDEST PUSH1 0x0 DUP1 DUP1 SLOAD SWAP1 POP SWAP1 POP SWAP1 JUMP JUMPDEST PUSH2 0xD9C DUP1 PUSH3 0x6A6 DUP4 CODECOPY ADD SWAP1 JUMP JUMPDEST PUSH1 0x0 PUSH1 0x40 MLOAD SWAP1 POP SWAP1 JUMP JUMPDEST PUSH1 0x0 DUP1 REVERT JUMPDEST PUSH1 0x0 DUP1 REVERT JUMPDEST PUSH1 0x0 DUP2 SWAP1 POP SWAP2 SWAP1 POP JUMP JUMPDEST PUSH3 0x248 DUP2 PUSH3 0x233 JUMP JUMPDEST DUP2 EQ PUSH3 0x254 JUMPI PUSH1 0x0 DUP1 REVERT JUMPDEST POP JUMP JUMPDEST PUSH1 0x0 DUP2 CALLDATALOAD SWAP1 POP PUSH3 0x268 DUP2 PUSH3 0x23D JUMP JUMPDEST SWAP3 SWAP2 POP POP JUMP JUMPDEST PUSH1 0x0 PUSH1 0x20 DUP3 DUP5 SUB SLT ISZERO PUSH3 0x287 JUMPI PUSH3 0x286 PUSH3 0x229 JUMP JUMPDEST JUMPDEST PUSH1 0x0 PUSH3 0x297 DUP5 DUP3 DUP6 ADD PUSH3 0x257 JUMP JUMPDEST SWAP2 POP POP SWAP3 SWAP2 POP POP JUMP JUMPDEST PUSH1 0x0 PUSH20 0xFFFFFFFFFFFFFFFFFFFFFFFFFFFFFFFFFFFFFFFF DUP3 AND SWAP1 POP SWAP2 SWAP1 POP JUMP JUMPDEST PUSH1 0x0 PUSH3 0x2CD DUP3 PUSH3 0x2A0 JUMP JUMPDEST SWAP1 POP SWAP2 SWAP1 POP JUMP JUMPDEST PUSH3 0x2DF DUP2 PUSH3 0x2C0 JUMP JUMPDEST DUP3 MSTORE POP POP JUMP JUMPDEST PUSH1 0x0 PUSH1 0x20 DUP3 ADD SWAP1 POP PUSH3 0x2FC PUSH1 0x0 DUP4 ADD DUP5 PUSH3 0x2D4 JUMP JUMPDEST SWAP3 SWAP2 POP POP JUMP JUMPDEST PUSH1 0x0 DUP1 REVERT JUMPDEST PUSH1 0x0 DUP1 REVERT JUMPDEST PUSH1 0x0 PUSH1 0x1F NOT PUSH1 0x1F DUP4 ADD AND SWAP1 POP SWAP2 SWAP1 POP JUMP JUMPDEST PUSH32 0x4E487B7100000000000000000000000000000000000000000000000000000000 PUSH1 0x0 MSTORE PUSH1 0x41 PUSH1 0x4 MSTORE PUSH1 0x24 PUSH1 0x0 REVERT JUMPDEST PUSH3 0x357 DUP3 PUSH3 0x30C JUMP JUMPDEST DUP2 ADD DUP2 DUP2 LT PUSH8 0xFFFFFFFFFFFFFFFF DUP3 GT OR ISZERO PUSH3 0x379 JUMPI PUSH3 0x378 PUSH3 0x31D JUMP JUMPDEST JUMPDEST DUP1 PUSH1 0x40 MSTORE POP POP POP JUMP JUMPDEST PUSH1 0x0 PUSH3 0x38E PUSH3 0x21F JUMP JUMPDEST SWAP1 POP PUSH3 0x39C DUP3 DUP3 PUSH3 0x34C JUMP JUMPDEST SWAP2 SWAP1 POP JUMP JUMPDEST PUSH1 0x0 PUSH8 0xFFFFFFFFFFFFFFFF DUP3 GT ISZERO PUSH3 0x3BF JUMPI PUSH3 0x3BE PUSH3 0x31D JUMP JUMPDEST JUMPDEST PUSH3 0x3CA DUP3 PUSH3 0x30C JUMP JUMPDEST SWAP1 POP PUSH1 0x20 DUP2 ADD SWAP1 POP SWAP2 SWAP1 POP JUMP JUMPDEST DUP3 DUP2 DUP4 CALLDATACOPY PUSH1 0x0 DUP4 DUP4 ADD MSTORE POP POP POP JUMP JUMPDEST PUSH1 0x0 PUSH3 0x3FD PUSH3 0x3F7 DUP5 PUSH3 0x3A1 JUMP JUMPDEST PUSH3 0x382 JUMP JUMPDEST SWAP1 POP DUP3 DUP2 MSTORE PUSH1 0x20 DUP2 ADD DUP5 DUP5 DUP5 ADD GT ISZERO PUSH3 0x41C JUMPI PUSH3 0x41B PUSH3 0x307 JUMP JUMPDEST JUMPDEST PUSH3 0x429 DUP5 DUP3 DUP6 PUSH3 0x3D7 JUMP JUMPDEST POP SWAP4 SWAP3 POP POP POP JUMP JUMPDEST PUSH1 0x0 DUP3 PUSH1 0x1F DUP4 ADD SLT PUSH3 0x449 JUMPI PUSH3 0x448 PUSH3 0x302 JUMP JUMPDEST JUMPDEST DUP2 CALLDATALOAD PUSH3 0x45B DUP5 DUP3 PUSH1 0x20 DUP7 ADD PUSH3 0x3E6 JUMP JUMPDEST SWAP2 POP POP SWAP3 SWAP2 POP POP JUMP JUMPDEST PUSH3 0x46F DUP2 PUSH3 0x2C0 JUMP JUMPDEST DUP2 EQ PUSH3 0x47B JUMPI PUSH1 0x0 DUP1 REVERT JUMPDEST POP JUMP JUMPDEST PUSH1 0x0 DUP2 CALLDATALOAD SWAP1 POP PUSH3 0x48F DUP2 PUSH3 0x464 JUMP JUMPDEST SWAP3 SWAP2 POP POP JUMP JUMPDEST PUSH1 0x0 DUP1 PUSH1 0x0 DUP1 PUSH1 0x80 DUP6 DUP8 SUB SLT ISZERO PUSH3 0x4B2 JUMPI PUSH3 0x4B1 PUSH3 0x229 JUMP JUMPDEST JUMPDEST PUSH1 0x0 DUP6 ADD CALLDATALOAD PUSH8 0xFFFFFFFFFFFFFFFF DUP2 GT ISZERO PUSH3 0x4D3 JUMPI PUSH3 0x4D2 PUSH3 0x22E JUMP JUMPDEST JUMPDEST PUSH3 0x4E1 DUP8 DUP3 DUP9 ADD PUSH3 0x431 JUMP JUMPDEST SWAP5 POP POP PUSH1 0x20 PUSH3 0x4F4 DUP8 DUP3 DUP9 ADD PUSH3 0x257 JUMP JUMPDEST SWAP4 POP POP PUSH1 0x40 DUP6 ADD CALLDATALOAD PUSH8 0xFFFFFFFFFFFFFFFF DUP2 GT ISZERO PUSH3 0x518 JUMPI PUSH3 0x517 PUSH3 0x22E JUMP JUMPDEST JUMPDEST PUSH3 0x526 DUP8 DUP3 DUP9 ADD PUSH3 0x431 JUMP JUMPDEST SWAP3 POP POP PUSH1 0x60 PUSH3 0x539 DUP8 DUP3 DUP9 ADD PUSH3 0x47E JUMP JUMPDEST SWAP2 POP POP SWAP3 SWAP6 SWAP2 SWAP5 POP SWAP3 POP JUMP JUMPDEST PUSH3 0x550 DUP2 PUSH3 0x233 JUMP JUMPDEST DUP3 MSTORE POP POP JUMP JUMPDEST PUSH1 0x0 PUSH1 0x20 DUP3 ADD SWAP1 POP PUSH3 0x56D PUSH1 0x0 DUP4 ADD DUP5 PUSH3 0x545 JUMP JUMPDEST SWAP3 SWAP2 POP POP JUMP JUMPDEST PUSH1 0x0 DUP2 MLOAD SWAP1 POP SWAP2 SWAP1 POP JUMP JUMPDEST PUSH1 0x0 DUP3 DUP3 MSTORE PUSH1 0x20 DUP3 ADD SWAP1 POP SWAP3 SWAP2 POP POP JUMP JUMPDEST PUSH1 0x0 JUMPDEST DUP4 DUP2 LT ISZERO PUSH3 0x5AF JUMPI DUP1 DUP3 ADD MLOAD DUP2 DUP5 ADD MSTORE PUSH1 0x20 DUP2 ADD SWAP1 POP PUSH3 0x592 JUMP JUMPDEST DUP4 DUP2 GT ISZERO PUSH3 0x5BF JUMPI PUSH1 0x0 DUP5 DUP5 ADD MSTORE JUMPDEST POP POP POP POP JUMP JUMPDEST PUSH1 0x0 PUSH3 0x5D2 DUP3 PUSH3 0x573 JUMP JUMPDEST PUSH3 0x5DE DUP2 DUP6 PUSH3 0x57E JUMP JUMPDEST SWAP4 POP PUSH3 0x5F0 DUP2 DUP6 PUSH1 0x20 DUP7 ADD PUSH3 0x58F JUMP JUMPDEST PUSH3 0x5FB DUP2 PUSH3 0x30C JUMP JUMPDEST DUP5 ADD SWAP2 POP POP SWAP3 SWAP2 POP POP JUMP JUMPDEST PUSH1 0x0 PUSH1 0x80 DUP3 ADD SWAP1 POP DUP2 DUP2 SUB PUSH1 0x0 DUP4 ADD MSTORE PUSH3 0x622 DUP2 DUP8 PUSH3 0x5C5 JUMP JUMPDEST SWAP1 POP PUSH3 0x633 PUSH1 0x20 DUP4 ADD DUP7 PUSH3 0x545 JUMP JUMPDEST DUP2 DUP2 SUB PUSH1 0x40 DUP4 ADD MSTORE PUSH3 0x647 DUP2 DUP6 PUSH3 0x5C5 JUMP JUMPDEST SWAP1 POP PUSH3 0x658 PUSH1 0x60 DUP4 ADD DUP5 PUSH3 0x2D4 JUMP JUMPDEST SWAP6 SWAP5 POP POP POP POP POP JUMP JUMPDEST PUSH1 0x0 PUSH1 0x60 DUP3 ADD SWAP1 POP DUP2 DUP2 SUB PUSH1 0x0 DUP4 ADD MSTORE PUSH3 0x67D DUP2 DUP7 PUSH3 0x5C5 JUMP JUMPDEST SWAP1 POP PUSH3 0x68E PUSH1 0x20 DUP4 ADD DUP6 PUSH3 0x545 JUMP JUMPDEST PUSH3 0x69D PUSH1 0x40 DUP4 ADD DUP5 PUSH3 0x2D4 JUMP JUMPDEST SWAP5 SWAP4 POP POP POP POP JUMP INVALID PUSH1 0x80 PUSH1 0x40 MSTORE CALLVALUE DUP1 ISZERO PUSH3 0x11 JUMPI PUSH1 0x0 DUP1 REVERT JUMPDEST POP PUSH1 0x40 MLOAD PUSH3 0xD9C CODESIZE SUB DUP1 PUSH3 0xD9C DUP4 CODECOPY DUP2 DUP2 ADD PUSH1 0x40 MSTORE DUP2 ADD SWAP1 PUSH3 0x37 SWAP2 SWAP1 PUSH3 0x2EA JUMP JUMPDEST DUP4 PUSH1 0x0 SWAP1 DUP2 PUSH3 0x48 SWAP2 SWAP1 PUSH3 0x5DB JUMP JUMPDEST POP DUP3 PUSH1 0x2 DUP2 SWAP1 SSTORE POP DUP2 PUSH1 0x1 SWAP1 DUP2 PUSH3 0x61 SWAP2 SWAP1 PUSH3 0x5DB JUMP JUMPDEST POP DUP1 PUSH1 0x4 PUSH1 0x0 PUSH2 0x100 EXP DUP2 SLOAD DUP2 PUSH20 0xFFFFFFFFFFFFFFFFFFFFFFFFFFFFFFFFFFFFFFFF MUL NOT AND SWAP1 DUP4 PUSH20 0xFFFFFFFFFFFFFFFFFFFFFFFFFFFFFFFFFFFFFFFF AND MUL OR SWAP1 SSTORE POP POP POP POP POP PUSH3 0x6C2 JUMP JUMPDEST PUSH1 0x0 PUSH1 0x40 MLOAD SWAP1 POP SWAP1 JUMP JUMPDEST PUSH1 0x0 DUP1 REVERT JUMPDEST PUSH1 0x0 DUP1 REVERT JUMPDEST PUSH1 0x0 DUP1 REVERT JUMPDEST PUSH1 0x0 DUP1 REVERT JUMPDEST PUSH1 0x0 PUSH1 0x1F NOT PUSH1 0x1F DUP4 ADD AND SWAP1 POP SWAP2 SWAP1 POP JUMP JUMPDEST PUSH32 0x4E487B7100000000000000000000000000000000000000000000000000000000 PUSH1 0x0 MSTORE PUSH1 0x41 PUSH1 0x4 MSTORE PUSH1 0x24 PUSH1 0x0 REVERT JUMPDEST PUSH3 0x116 DUP3 PUSH3 0xCB JUMP JUMPDEST DUP2 ADD DUP2 DUP2 LT PUSH8 0xFFFFFFFFFFFFFFFF DUP3 GT OR ISZERO PUSH3 0x138 JUMPI PUSH3 0x137 PUSH3 0xDC JUMP JUMPDEST JUMPDEST DUP1 PUSH1 0x40 MSTORE POP POP POP JUMP JUMPDEST PUSH1 0x0 PUSH3 0x14D PUSH3 0xAD JUMP JUMPDEST SWAP1 POP PUSH3 0x15B DUP3 DUP3 PUSH3 0x10B JUMP JUMPDEST SWAP2 SWAP1 POP JUMP JUMPDEST PUSH1 0x0 PUSH8 0xFFFFFFFFFFFFFFFF DUP3 GT ISZERO PUSH3 0x17E JUMPI PUSH3 0x17D PUSH3 0xDC JUMP JUMPDEST JUMPDEST PUSH3 0x189 DUP3 PUSH3 0xCB JUMP JUMPDEST SWAP1 POP PUSH1 0x20 DUP2 ADD SWAP1 POP SWAP2 SWAP1 POP JUMP JUMPDEST PUSH1 0x0 JUMPDEST DUP4 DUP2 LT ISZERO PUSH3 0x1B6 JUMPI DUP1 DUP3 ADD MLOAD DUP2 DUP5 ADD MSTORE PUSH1 0x20 DUP2 ADD SWAP1 POP PUSH3 0x199 JUMP JUMPDEST DUP4 DUP2 GT ISZERO PUSH3 0x1C6 JUMPI PUSH1 0x0 DUP5 DUP5 ADD MSTORE JUMPDEST POP POP POP POP JUMP JUMPDEST PUSH1 0x0 PUSH3 0x1E3 PUSH3 0x1DD DUP5 PUSH3 0x160 JUMP JUMPDEST PUSH3 0x141 JUMP JUMPDEST SWAP1 POP DUP3 DUP2 MSTORE PUSH1 0x20 DUP2 ADD DUP5 DUP5 DUP5 ADD GT ISZERO PUSH3 0x202 JUMPI PUSH3 0x201 PUSH3 0xC6 JUMP JUMPDEST JUMPDEST PUSH3 0x20F DUP5 DUP3 DUP6 PUSH3 0x196 JUMP JUMPDEST POP SWAP4 SWAP3 POP POP POP JUMP JUMPDEST PUSH1 0x0 DUP3 PUSH1 0x1F DUP4 ADD SLT PUSH3 0x22F JUMPI PUSH3 0x22E PUSH3 0xC1 JUMP JUMPDEST JUMPDEST DUP2 MLOAD PUSH3 0x241 DUP5 DUP3 PUSH1 0x20 DUP7 ADD PUSH3 0x1CC JUMP JUMPDEST SWAP2 POP POP SWAP3 SWAP2 POP POP JUMP JUMPDEST PUSH1 0x0 DUP2 SWAP1 POP SWAP2 SWAP1 POP JUMP JUMPDEST PUSH3 0x25F DUP2 PUSH3 0x24A JUMP JUMPDEST DUP2 EQ PUSH3 0x26B JUMPI PUSH1 0x0 DUP1 REVERT JUMPDEST POP JUMP JUMPDEST PUSH1 0x0 DUP2 MLOAD SWAP1 POP PUSH3 0x27F DUP2 PUSH3 0x254 JUMP JUMPDEST SWAP3 SWAP2 POP POP JUMP JUMPDEST PUSH1 0x0 PUSH20 0xFFFFFFFFFFFFFFFFFFFFFFFFFFFFFFFFFFFFFFFF DUP3 AND SWAP1 POP SWAP2 SWAP1 POP JUMP JUMPDEST PUSH1 0x0 PUSH3 0x2B2 DUP3 PUSH3 0x285 JUMP JUMPDEST SWAP1 POP SWAP2 SWAP1 POP JUMP JUMPDEST PUSH3 0x2C4 DUP2 PUSH3 0x2A5 JUMP JUMPDEST DUP2 EQ PUSH3 0x2D0 JUMPI PUSH1 0x0 DUP1 REVERT JUMPDEST POP JUMP JUMPDEST PUSH1 0x0 DUP2 MLOAD SWAP1 POP PUSH3 0x2E4 DUP2 PUSH3 0x2B9 JUMP JUMPDEST SWAP3 SWAP2 POP POP JUMP JUMPDEST PUSH1 0x0 DUP1 PUSH1 0x0 DUP1 PUSH1 0x80 DUP6 DUP8 SUB SLT ISZERO PUSH3 0x307 JUMPI PUSH3 0x306 PUSH3 0xB7 JUMP JUMPDEST JUMPDEST PUSH1 0x0 DUP6 ADD MLOAD PUSH8 0xFFFFFFFFFFFFFFFF DUP2 GT ISZERO PUSH3 0x328 JUMPI PUSH3 0x327 PUSH3 0xBC JUMP JUMPDEST JUMPDEST PUSH3 0x336 DUP8 DUP3 DUP9 ADD PUSH3 0x217 JUMP JUMPDEST SWAP5 POP POP PUSH1 0x20 PUSH3 0x349 DUP8 DUP3 DUP9 ADD PUSH3 0x26E JUMP JUMPDEST SWAP4 POP POP PUSH1 0x40 DUP6 ADD MLOAD PUSH8 0xFFFFFFFFFFFFFFFF DUP2 GT ISZERO PUSH3 0x36D JUMPI PUSH3 0x36C PUSH3 0xBC JUMP JUMPDEST JUMPDEST PUSH3 0x37B DUP8 DUP3 DUP9 ADD PUSH3 0x217 JUMP JUMPDEST SWAP3 POP POP PUSH1 0x60 PUSH3 0x38E DUP8 DUP3 DUP9 ADD PUSH3 0x2D3 JUMP JUMPDEST SWAP2 POP POP SWAP3 SWAP6 SWAP2 SWAP5 POP SWAP3 POP JUMP JUMPDEST PUSH1 0x0 DUP2 MLOAD SWAP1 POP SWAP2 SWAP1 POP JUMP JUMPDEST PUSH32 0x4E487B7100000000000000000000000000000000000000000000000000000000 PUSH1 0x0 MSTORE PUSH1 0x22 PUSH1 0x4 MSTORE PUSH1 0x24 PUSH1 0x0 REVERT JUMPDEST PUSH1 0x0 PUSH1 0x2 DUP3 DIV SWAP1 POP PUSH1 0x1 DUP3 AND DUP1 PUSH3 0x3ED JUMPI PUSH1 0x7F DUP3 AND SWAP2 POP JUMPDEST PUSH1 0x20 DUP3 LT DUP2 SUB PUSH3 0x403 JUMPI PUSH3 0x402 PUSH3 0x3A5 JUMP JUMPDEST JUMPDEST POP SWAP2 SWAP1 POP JUMP JUMPDEST PUSH1 0x0 DUP2 SWAP1 POP DUP2 PUSH1 0x0 MSTORE PUSH1 0x20 PUSH1 0x0 KECCAK256 SWAP1 POP SWAP2 SWAP1 POP JUMP JUMPDEST PUSH1 0x0 PUSH1 0x20 PUSH1 0x1F DUP4 ADD DIV SWAP1 POP SWAP2 SWAP1 POP JUMP JUMPDEST PUSH1 0x0 DUP3 DUP3 SHL SWAP1 POP SWAP3 SWAP2 POP POP JUMP JUMPDEST PUSH1 0x0 PUSH1 0x8 DUP4 MUL PUSH3 0x46D PUSH32 0xFFFFFFFFFFFFFFFFFFFFFFFFFFFFFFFFFFFFFFFFFFFFFFFFFFFFFFFFFFFFFFFF DUP3 PUSH3 0x42E JUMP JUMPDEST PUSH3 0x479 DUP7 DUP4 PUSH3 0x42E JUMP JUMPDEST SWAP6 POP DUP1 NOT DUP5 AND SWAP4 POP DUP1 DUP7 AND DUP5 OR SWAP3 POP POP POP SWAP4 SWAP3 POP POP POP JUMP JUMPDEST PUSH1 0x0 DUP2 SWAP1 POP SWAP2 SWAP1 POP JUMP JUMPDEST PUSH1 0x0 PUSH3 0x4BC PUSH3 0x4B6 PUSH3 0x4B0 DUP5 PUSH3 0x24A JUMP JUMPDEST PUSH3 0x491 JUMP JUMPDEST PUSH3 0x24A JUMP JUMPDEST SWAP1 POP SWAP2 SWAP1 POP JUMP JUMPDEST PUSH1 0x0 DUP2 SWAP1 POP SWAP2 SWAP1 POP JUMP JUMPDEST PUSH3 0x4D8 DUP4 PUSH3 0x49B JUMP JUMPDEST PUSH3 0x4F0 PUSH3 0x4E7 DUP3 PUSH3 0x4C3 JUMP JUMPDEST DUP5 DUP5 SLOAD PUSH3 0x43B JUMP JUMPDEST DUP3 SSTORE POP POP POP POP JUMP JUMPDEST PUSH1 0x0 SWAP1 JUMP JUMPDEST PUSH3 0x507 PUSH3 0x4F8 JUMP JUMPDEST PUSH3 0x514 DUP2 DUP5 DUP5 PUSH3 0x4CD JUMP JUMPDEST POP POP POP JUMP JUMPDEST JUMPDEST DUP2 DUP2 LT ISZERO PUSH3 0x53C JUMPI PUSH3 0x530 PUSH1 0x0 DUP3 PUSH3 0x4FD JUMP JUMPDEST PUSH1 0x1 DUP2 ADD SWAP1 POP PUSH3 0x51A JUMP JUMPDEST POP POP JUMP JUMPDEST PUSH1 0x1F DUP3 GT ISZERO PUSH3 0x58B JUMPI PUSH3 0x555 DUP2 PUSH3 0x409 JUMP JUMPDEST PUSH3 0x560 DUP5 PUSH3 0x41E JUMP JUMPDEST DUP2 ADD PUSH1 0x20 DUP6 LT ISZERO PUSH3 0x570 JUMPI DUP2 SWAP1 POP JUMPDEST PUSH3 0x588 PUSH3 0x57F DUP6 PUSH3 0x41E JUMP JUMPDEST DUP4 ADD DUP3 PUSH3 0x519 JUMP JUMPDEST POP POP JUMPDEST POP POP POP JUMP JUMPDEST PUSH1 0x0 DUP3 DUP3 SHR SWAP1 POP SWAP3 SWAP2 POP POP JUMP JUMPDEST PUSH1 0x0 PUSH3 0x5B0 PUSH1 0x0 NOT DUP5 PUSH1 0x8 MUL PUSH3 0x590 JUMP JUMPDEST NOT DUP1 DUP4 AND SWAP2 POP POP SWAP3 SWAP2 POP POP JUMP JUMPDEST PUSH1 0x0 PUSH3 0x5CB DUP4 DUP4 PUSH3 0x59D JUMP JUMPDEST SWAP2 POP DUP3 PUSH1 0x2 MUL DUP3 OR SWAP1 POP SWAP3 SWAP2 POP POP JUMP JUMPDEST PUSH3 0x5E6 DUP3 PUSH3 0x39A JUMP JUMPDEST PUSH8 0xFFFFFFFFFFFFFFFF DUP2 GT ISZERO PUSH3 0x602 JUMPI PUSH3 0x601 PUSH3 0xDC JUMP JUMPDEST JUMPDEST PUSH3 0x60E DUP3 SLOAD PUSH3 0x3D4 JUMP JUMPDEST PUSH3 0x61B DUP3 DUP3 DUP6 PUSH3 0x540 JUMP JUMPDEST PUSH1 0x0 PUSH1 0x20 SWAP1 POP PUSH1 0x1F DUP4 GT PUSH1 0x1 DUP2 EQ PUSH3 0x653 JUMPI PUSH1 0x0 DUP5 ISZERO PUSH3 0x63E JUMPI DUP3 DUP8 ADD MLOAD SWAP1 POP JUMPDEST PUSH3 0x64A DUP6 DUP3 PUSH3 0x5BD JUMP JUMPDEST DUP7 SSTORE POP PUSH3 0x6BA JUMP JUMPDEST PUSH1 0x1F NOT DUP5 AND PUSH3 0x663 DUP7 PUSH3 0x409 JUMP JUMPDEST PUSH1 0x0 JUMPDEST DUP3 DUP2 LT ISZERO PUSH3 0x68D JUMPI DUP5 DUP10 ADD MLOAD DUP3 SSTORE PUSH1 0x1 DUP3 ADD SWAP2 POP PUSH1 0x20 DUP6 ADD SWAP5 POP PUSH1 0x20 DUP2 ADD SWAP1 POP PUSH3 0x666 JUMP JUMPDEST DUP7 DUP4 LT ISZERO PUSH3 0x6AD JUMPI DUP5 DUP10 ADD MLOAD PUSH3 0x6A9 PUSH1 0x1F DUP10 AND DUP3 PUSH3 0x59D JUMP JUMPDEST DUP4 SSTORE POP JUMPDEST PUSH1 0x1 PUSH1 0x2 DUP9 MUL ADD DUP9 SSTORE POP POP POP JUMPDEST POP POP POP POP POP POP JUMP JUMPDEST PUSH2 0x6CA DUP1 PUSH3 0x6D2 PUSH1 0x0 CODECOPY PUSH1 0x0 RETURN INVALID PUSH1 0x80 PUSH1 0x40 MSTORE PUSH1 0x4 CALLDATASIZE LT PUSH2 0x4A JUMPI PUSH1 0x0 CALLDATALOAD PUSH1 0xE0 SHR DUP1 PUSH4 0x2636B945 EQ PUSH2 0x4F JUMPI DUP1 PUSH4 0x40EA0A94 EQ PUSH2 0x7A JUMPI DUP1 PUSH4 0xBEDAB4FE EQ PUSH2 0x84 JUMPI DUP1 PUSH4 0xC59EE1DC EQ PUSH2 0xAF JUMPI DUP1 PUSH4 0xCBD60D54 EQ PUSH2 0xDA JUMPI JUMPDEST PUSH1 0x0 DUP1 REVERT JUMPDEST CALLVALUE DUP1 ISZERO PUSH2 0x5B JUMPI PUSH1 0x0 DUP1 REVERT JUMPDEST POP PUSH2 0x64 PUSH2 0x105 JUMP JUMPDEST PUSH1 0x40 MLOAD PUSH2 0x71 SWAP2 SWAP1 PUSH2 0x3BB JUMP JUMPDEST PUSH1 0x40 MLOAD DUP1 SWAP2 SUB SWAP1 RETURN JUMPDEST PUSH2 0x82 PUSH2 0x10B JUMP JUMPDEST STOP JUMPDEST CALLVALUE DUP1 ISZERO PUSH2 0x90 JUMPI PUSH1 0x0 DUP1 REVERT JUMPDEST POP PUSH2 0x99 PUSH2 0x280 JUMP JUMPDEST PUSH1 0x40 MLOAD PUSH2 0xA6 SWAP2 SWAP1 PUSH2 0x46F JUMP JUMPDEST PUSH1 0x40 MLOAD DUP1 SWAP2 SUB SWAP1 RETURN JUMPDEST CALLVALUE DUP1 ISZERO PUSH2 0xBB JUMPI PUSH1 0x0 DUP1 REVERT JUMPDEST POP PUSH2 0xC4 PUSH2 0x30E JUMP JUMPDEST PUSH1 0x40 MLOAD PUSH2 0xD1 SWAP2 SWAP1 PUSH2 0x3BB JUMP JUMPDEST PUSH1 0x40 MLOAD DUP1 SWAP2 SUB SWAP1 RETURN JUMPDEST CALLVALUE DUP1 ISZERO PUSH2 0xE6 JUMPI PUSH1 0x0 DUP1 REVERT JUMPDEST POP PUSH2 0xEF PUSH2 0x314 JUMP JUMPDEST PUSH1 0x40 MLOAD PUSH2 0xFC SWAP2 SWAP1 PUSH2 0x46F JUMP JUMPDEST PUSH1 0x40 MLOAD DUP1 SWAP2 SUB SWAP1 RETURN JUMPDEST PUSH1 0x2 SLOAD DUP2 JUMP JUMPDEST PUSH1 0x3 SLOAD PUSH1 0x2 SLOAD GT PUSH2 0x151 JUMPI PUSH1 0x40 MLOAD PUSH32 0x8C379A000000000000000000000000000000000000000000000000000000000 DUP2 MSTORE PUSH1 0x4 ADD PUSH2 0x148 SWAP1 PUSH2 0x4DD JUMP JUMPDEST PUSH1 0x40 MLOAD DUP1 SWAP2 SUB SWAP1 REVERT JUMPDEST PUSH1 0x0 PUSH1 0x4 PUSH1 0x0 SWAP1 SLOAD SWAP1 PUSH2 0x100 EXP SWAP1 DIV PUSH20 0xFFFFFFFFFFFFFFFFFFFFFFFFFFFFFFFFFFFFFFFF AND PUSH20 0xFFFFFFFFFFFFFFFFFFFFFFFFFFFFFFFFFFFFFFFF AND CALLVALUE PUSH1 0x40 MLOAD PUSH2 0x199 SWAP1 PUSH2 0x52E JUMP JUMPDEST PUSH1 0x0 PUSH1 0x40 MLOAD DUP1 DUP4 SUB DUP2 DUP6 DUP8 GAS CALL SWAP3 POP POP POP RETURNDATASIZE DUP1 PUSH1 0x0 DUP2 EQ PUSH2 0x1D6 JUMPI PUSH1 0x40 MLOAD SWAP2 POP PUSH1 0x1F NOT PUSH1 0x3F RETURNDATASIZE ADD AND DUP3 ADD PUSH1 0x40 MSTORE RETURNDATASIZE DUP3 MSTORE RETURNDATASIZE PUSH1 0x0 PUSH1 0x20 DUP5 ADD RETURNDATACOPY PUSH2 0x1DB JUMP JUMPDEST PUSH1 0x60 SWAP2 POP JUMPDEST POP POP SWAP1 POP DUP1 PUSH2 0x21F JUMPI PUSH1 0x40 MLOAD PUSH32 0x8C379A000000000000000000000000000000000000000000000000000000000 DUP2 MSTORE PUSH1 0x4 ADD PUSH2 0x216 SWAP1 PUSH2 0x58F JUMP JUMPDEST PUSH1 0x40 MLOAD DUP1 SWAP2 SUB SWAP1 REVERT JUMPDEST CALLVALUE PUSH1 0x3 PUSH1 0x0 DUP3 DUP3 SLOAD PUSH2 0x231 SWAP2 SWAP1 PUSH2 0x5DE JUMP JUMPDEST SWAP3 POP POP DUP2 SWAP1 SSTORE POP TIMESTAMP CALLVALUE CALLER PUSH20 0xFFFFFFFFFFFFFFFFFFFFFFFFFFFFFFFFFFFFFFFF AND PUSH32 0xCD909EC339185C4598A4096E174308FBDF136D117F230960F873A2F2E81F63AF PUSH1 0x40 MLOAD PUSH1 0x40 MLOAD DUP1 SWAP2 SUB SWAP1 LOG4 POP JUMP JUMPDEST PUSH1 0x0 DUP1 SLOAD PUSH2 0x28D SWAP1 PUSH2 0x663 JUMP JUMPDEST DUP1 PUSH1 0x1F ADD PUSH1 0x20 DUP1 SWAP2 DIV MUL PUSH1 0x20 ADD PUSH1 0x40 MLOAD SWAP1 DUP2 ADD PUSH1 0x40 MSTORE DUP1 SWAP3 SWAP2 SWAP1 DUP2 DUP2 MSTORE PUSH1 0x20 ADD DUP3 DUP1 SLOAD PUSH2 0x2B9 SWAP1 PUSH2 0x663 JUMP JUMPDEST DUP1 ISZERO PUSH2 0x306 JUMPI DUP1 PUSH1 0x1F LT PUSH2 0x2DB JUMPI PUSH2 0x100 DUP1 DUP4 SLOAD DIV MUL DUP4 MSTORE SWAP2 PUSH1 0x20 ADD SWAP2 PUSH2 0x306 JUMP JUMPDEST DUP3 ADD SWAP2 SWAP1 PUSH1 0x0 MSTORE PUSH1 0x20 PUSH1 0x0 KECCAK256 SWAP1 JUMPDEST DUP2 SLOAD DUP2 MSTORE SWAP1 PUSH1 0x1 ADD SWAP1 PUSH1 0x20 ADD DUP1 DUP4 GT PUSH2 0x2E9 JUMPI DUP3 SWAP1 SUB PUSH1 0x1F AND DUP3 ADD SWAP2 JUMPDEST POP POP POP POP POP DUP2 JUMP JUMPDEST PUSH1 0x3 SLOAD DUP2 JUMP JUMPDEST PUSH1 0x1 DUP1 SLOAD PUSH2 0x321 SWAP1 PUSH2 0x663 JUMP JUMPDEST DUP1 PUSH1 0x1F ADD PUSH1 0x20 DUP1 SWAP2 DIV MUL PUSH1 0x20 ADD PUSH1 0x40 MLOAD SWAP1 DUP2 ADD PUSH1 0x40 MSTORE DUP1 SWAP3 SWAP2 SWAP1 DUP2 DUP2 MSTORE PUSH1 0x20 ADD DUP3 DUP1 SLOAD PUSH2 0x34D SWAP1 PUSH2 0x663 JUMP JUMPDEST DUP1 ISZERO PUSH2 0x39A JUMPI DUP1 PUSH1 0x1F LT PUSH2 0x36F JUMPI PUSH2 0x100 DUP1 DUP4 SLOAD DIV MUL DUP4 MSTORE SWAP2 PUSH1 0x20 ADD SWAP2 PUSH2 0x39A JUMP JUMPDEST DUP3 ADD SWAP2 SWAP1 PUSH1 0x0 MSTORE PUSH1 0x20 PUSH1 0x0 KECCAK256 SWAP1 JUMPDEST DUP2 SLOAD DUP2 MSTORE SWAP1 PUSH1 0x1 ADD SWAP1 PUSH1 0x20 ADD DUP1 DUP4 GT PUSH2 0x37D JUMPI DUP3 SWAP1 SUB PUSH1 0x1F AND DUP3 ADD SWAP2 JUMPDEST POP POP POP POP POP DUP2 JUMP JUMPDEST PUSH1 0x0 DUP2 SWAP1 POP SWAP2 SWAP1 POP JUMP JUMPDEST PUSH2 0x3B5 DUP2 PUSH2 0x3A2 JUMP JUMPDEST DUP3 MSTORE POP POP JUMP JUMPDEST PUSH1 0x0 PUSH1 0x20 DUP3 ADD SWAP1 POP PUSH2 0x3D0 PUSH1 0x0 DUP4 ADD DUP5 PUSH2 0x3AC JUMP JUMPDEST SWAP3 SWAP2 POP POP JUMP JUMPDEST PUSH1 0x0 DUP2 MLOAD SWAP1 POP SWAP2 SWAP1 POP JUMP JUMPDEST PUSH1 0x0 DUP3 DUP3 MSTORE PUSH1 0x20 DUP3 ADD SWAP1 POP SWAP3 SWAP2 POP POP JUMP JUMPDEST PUSH1 0x0 JUMPDEST DUP4 DUP2 LT ISZERO PUSH2 0x410 JUMPI DUP1 DUP3 ADD MLOAD DUP2 DUP5 ADD MSTORE PUSH1 0x20 DUP2 ADD SWAP1 POP PUSH2 0x3F5 JUMP JUMPDEST DUP4 DUP2 GT ISZERO PUSH2 0x41F JUMPI PUSH1 0x0 DUP5 DUP5 ADD MSTORE JUMPDEST POP POP POP POP JUMP JUMPDEST PUSH1 0x0 PUSH1 0x1F NOT PUSH1 0x1F DUP4 ADD AND SWAP1 POP SWAP2 SWAP1 POP JUMP JUMPDEST PUSH1 0x0 PUSH2 0x441 DUP3 PUSH2 0x3D6 JUMP JUMPDEST PUSH2 0x44B DUP2 DUP6 PUSH2 0x3E1 JUMP JUMPDEST SWAP4 POP PUSH2 0x45B DUP2 DUP6 PUSH1 0x20 DUP7 ADD PUSH2 0x3F2 JUMP JUMPDEST PUSH2 0x464 DUP2 PUSH2 0x425 JUMP JUMPDEST DUP5 ADD SWAP2 POP POP SWAP3 SWAP2 POP POP JUMP JUMPDEST PUSH1 0x0 PUSH1 0x20 DUP3 ADD SWAP1 POP DUP2 DUP2 SUB PUSH1 0x0 DUP4 ADD MSTORE PUSH2 0x489 DUP2 DUP5 PUSH2 0x436 JUMP JUMPDEST SWAP1 POP SWAP3 SWAP2 POP POP JUMP JUMPDEST PUSH32 0x474F414C20414348494556454400000000000000000000000000000000000000 PUSH1 0x0 DUP3 ADD MSTORE POP JUMP JUMPDEST PUSH1 0x0 PUSH2 0x4C7 PUSH1 0xD DUP4 PUSH2 0x3E1 JUMP JUMPDEST SWAP2 POP PUSH2 0x4D2 DUP3 PUSH2 0x491 JUMP JUMPDEST PUSH1 0x20 DUP3 ADD SWAP1 POP SWAP2 SWAP1 POP JUMP JUMPDEST PUSH1 0x0 PUSH1 0x20 DUP3 ADD SWAP1 POP DUP2 DUP2 SUB PUSH1 0x0 DUP4 ADD MSTORE PUSH2 0x4F6 DUP2 PUSH2 0x4BA JUMP JUMPDEST SWAP1 POP SWAP2 SWAP1 POP JUMP JUMPDEST PUSH1 0x0 DUP2 SWAP1 POP SWAP3 SWAP2 POP POP JUMP JUMPDEST POP JUMP JUMPDEST PUSH1 0x0 PUSH2 0x518 PUSH1 0x0 DUP4 PUSH2 0x4FD JUMP JUMPDEST SWAP2 POP PUSH2 0x523 DUP3 PUSH2 0x508 JUMP JUMPDEST PUSH1 0x0 DUP3 ADD SWAP1 POP SWAP2 SWAP1 POP JUMP JUMPDEST PUSH1 0x0 PUSH2 0x539 DUP3 PUSH2 0x50B JUMP JUMPDEST SWAP2 POP DUP2 SWAP1 POP SWAP2 SWAP1 POP JUMP JUMPDEST PUSH32 0x56414C5545204E4F54205452414E534645525245440000000000000000000000 PUSH1 0x0 DUP3 ADD MSTORE POP JUMP JUMPDEST PUSH1 0x0 PUSH2 0x579 PUSH1 0x15 DUP4 PUSH2 0x3E1 JUMP JUMPDEST SWAP2 POP PUSH2 0x584 DUP3 PUSH2 0x543 JUMP JUMPDEST PUSH1 0x20 DUP3 ADD SWAP1 POP SWAP2 SWAP1 POP JUMP JUMPDEST PUSH1 0x0 PUSH1 0x20 DUP3 ADD SWAP1 POP DUP2 DUP2 SUB PUSH1 0x0 DUP4 ADD MSTORE PUSH2 0x5A8 DUP2 PUSH2 0x56C JUMP JUMPDEST SWAP1 POP SWAP2 SWAP1 POP JUMP JUMPDEST PUSH32 0x4E487B7100000000000000000000000000000000000000000000000000000000 PUSH1 0x0 MSTORE PUSH1 0x11 PUSH1 0x4 MSTORE PUSH1 0x24 PUSH1 0x0 REVERT JUMPDEST PUSH1 0x0 PUSH2 0x5E9 DUP3 PUSH2 0x3A2 JUMP JUMPDEST SWAP2 POP PUSH2 0x5F4 DUP4 PUSH2 0x3A2 JUMP JUMPDEST SWAP3 POP DUP3 PUSH32 0xFFFFFFFFFFFFFFFFFFFFFFFFFFFFFFFFFFFFFFFFFFFFFFFFFFFFFFFFFFFFFFFF SUB DUP3 GT ISZERO PUSH2 0x629 JUMPI PUSH2 0x628 PUSH2 0x5AF JUMP JUMPDEST JUMPDEST DUP3 DUP3 ADD SWAP1 POP SWAP3 SWAP2 POP POP JUMP JUMPDEST PUSH32 0x4E487B7100000000000000000000000000000000000000000000000000000000 PUSH1 0x0 MSTORE PUSH1 0x22 PUSH1 0x4 MSTORE PUSH1 0x24 PUSH1 0x0 REVERT JUMPDEST PUSH1 0x0 PUSH1 0x2 DUP3 DIV SWAP1 POP PUSH1 0x1 DUP3 AND DUP1 PUSH2 0x67B JUMPI PUSH1 0x7F DUP3 AND SWAP2 POP JUMPDEST PUSH1 0x20 DUP3 LT DUP2 SUB PUSH2 0x68E JUMPI PUSH2 0x68D PUSH2 0x634 JUMP JUMPDEST JUMPDEST POP SWAP2 SWAP1 POP JUMP INVALID LOG2 PUSH5 0x6970667358 0x22 SLT KECCAK256 0xB8 CALL 0xAD PUSH20 0xCA639CF6AA19DB74B465B9562E26BA99341889D6 BALANCE 0x29 SLT PUSH10 0xD16A3DB164736F6C6343 STOP ADDMOD 0xF STOP CALLER LOG2 PUSH5 0x6970667358 0x22 SLT KECCAK256 0xCF 0x2E CALLDATASIZE 0x2B 0xD2 REVERT PUSH5 0x2720A95FFC BYTE 0x27 PUSH14 0x1F26CDE31034413D36ABAFDDFB63 LOG4 CALLDATALOAD 0xE4 PUSH5 0x736F6C6343 STOP ADDMOD 0xF STOP CALLER "},"methodIdentifiers":{"createProject(string,uint256,string,address)":"a258f215","publishedProjs(uint256)":"591d0a09","totalPublishedProjs()":"f200e2d8"}}}}}