{
  "_format": "hh-sol-artifact-1",
  "contractName": "CrowdFactory",
  "sourceName": "contracts/crowdfunding.sol",
  "abi": [
    {
      "anonymous": false,
      "inputs": [
        {
          "indexed": false,
          "internalType": "string",
          "name": "projTitle",
          "type": "string"
        },
        {
          "indexed": false,
          "internalType": "uint256",
          "name": "goalAmount",
          "type": "uint256"
        },
        {
          "indexed": true,
          "internalType": "address",
          "name": "ownerWallet",
          "type": "address"
        },
        {
          "indexed": false,
          "internalType": "address",
          "name": "projAddress",
          "type": "address"
        },
        {
          "indexed": true,
          "internalType": "uint256",
          "name": "timestamp",
          "type": "uint256"
        }
      ],
      "name": "Projectcreated",
      "type": "event"
    },
    {
      "inputs": [
        {
          "internalType": "string",
          "name": "projectTitle",
          "type": "string"
        },
        {
          "internalType": "uint256",
          "name": "projgoalAmount",
          "type": "uint256"
        },
        {
          "internalType": "string",
          "name": "projDescript",
          "type": "string"
        },
        {
          "internalType": "address",
          "name": "ownerWallet",
          "type": "address"
        }
      ],
      "name": "createProject",
      "outputs": [],
      "stateMutability": "nonpayable",
      "type": "function"
    },
    {
      "inputs": [
        {
          "internalType": "uint256",
          "name": "",
          "type": "uint256"
        }
      ],
      "name": "publishedProjs",
      "outputs": [
        {
          "internalType": "address",
          "name": "",
          "type": "address"
        }
      ],
      "stateMutability": "view",
      "type": "function"
    },
    {
      "inputs": [],
      "name": "totalPublishedProjs",
      "outputs": [
        {
          "internalType": "uint256",
          "name": "",
          "type": "uint256"
        }
      ],
      "stateMutability": "view",
      "type": "function"
    }
  ],
  "bytecode": "0x608060405234801561001057600080fd5b50611477806100206000396000f3fe60806040523480156200001157600080fd5b5060043610620000465760003560e01c8063591d0a09146200004b578063a258f2151462000081578063f200e2d814620000a1575b600080fd5b6200006960048036038101906200006391906200026e565b620000c3565b604051620000789190620002e5565b60405180910390f35b6200009f600480360381019062000099919062000495565b62000103565b005b620000ab62000205565b604051620000ba919062000556565b60405180910390f35b60008181548110620000d457600080fd5b906000526020600020016000915054906101000a900473ffffffffffffffffffffffffffffffffffffffff1681565b600084848484604051620001179062000211565b62000126949392919062000606565b604051809103906000f08015801562000143573d6000803e3d6000fd5b5090506000819080600181540180825580915050600190039060005260206000200160009091909190916101000a81548173ffffffffffffffffffffffffffffffffffffffff021916908373ffffffffffffffffffffffffffffffffffffffff160217905550423373ffffffffffffffffffffffffffffffffffffffff167f7fea2b83672c8ba97a6a97840eb5a805b5cde24feabfae1117aadc9c9ebd6ab2878785604051620001f69392919062000661565b60405180910390a35050505050565b60008080549050905090565b610d9c80620006a683390190565b6000604051905090565b600080fd5b600080fd5b6000819050919050565b620002488162000233565b81146200025457600080fd5b50565b60008135905062000268816200023d565b92915050565b60006020828403121562000287576200028662000229565b5b6000620002978482850162000257565b91505092915050565b600073ffffffffffffffffffffffffffffffffffffffff82169050919050565b6000620002cd82620002a0565b9050919050565b620002df81620002c0565b82525050565b6000602082019050620002fc6000830184620002d4565b92915050565b600080fd5b600080fd5b6000601f19601f8301169050919050565b7f4e487b7100000000000000000000000000000000000000000000000000000000600052604160045260246000fd5b62000357826200030c565b810181811067ffffffffffffffff821117156200037957620003786200031d565b5b80604052505050565b60006200038e6200021f565b90506200039c82826200034c565b919050565b600067ffffffffffffffff821115620003bf57620003be6200031d565b5b620003ca826200030c565b9050602081019050919050565b82818337600083830152505050565b6000620003fd620003f784620003a1565b62000382565b9050828152602081018484840111156200041c576200041b62000307565b5b62000429848285620003d7565b509392505050565b600082601f83011262000449576200044862000302565b5b81356200045b848260208601620003e6565b91505092915050565b6200046f81620002c0565b81146200047b57600080fd5b50565b6000813590506200048f8162000464565b92915050565b60008060008060808587031215620004b257620004b162000229565b5b600085013567ffffffffffffffff811115620004d357620004d26200022e565b5b620004e18782880162000431565b9450506020620004f48782880162000257565b935050604085013567ffffffffffffffff8111156200051857620005176200022e565b5b620005268782880162000431565b925050606062000539878288016200047e565b91505092959194509250565b620005508162000233565b82525050565b60006020820190506200056d600083018462000545565b92915050565b600081519050919050565b600082825260208201905092915050565b60005b83811015620005af57808201518184015260208101905062000592565b83811115620005bf576000848401525b50505050565b6000620005d28262000573565b620005de81856200057e565b9350620005f08185602086016200058f565b620005fb816200030c565b840191505092915050565b60006080820190508181036000830152620006228187620005c5565b905062000633602083018662000545565b8181036040830152620006478185620005c5565b9050620006586060830184620002d4565b95945050505050565b600060608201905081810360008301526200067d8186620005c5565b90506200068e602083018562000545565b6200069d6040830184620002d4565b94935050505056fe60806040523480156200001157600080fd5b5060405162000d9c38038062000d9c8339818101604052810190620000379190620002ea565b8360009081620000489190620005db565b50826002819055508160019081620000619190620005db565b5080600460006101000a81548173ffffffffffffffffffffffffffffffffffffffff021916908373ffffffffffffffffffffffffffffffffffffffff16021790555050505050620006c2565b6000604051905090565b600080fd5b600080fd5b600080fd5b600080fd5b6000601f19601f8301169050919050565b7f4e487b7100000000000000000000000000000000000000000000000000000000600052604160045260246000fd5b6200011682620000cb565b810181811067ffffffffffffffff82111715620001385762000137620000dc565b5b80604052505050565b60006200014d620000ad565b90506200015b82826200010b565b919050565b600067ffffffffffffffff8211156200017e576200017d620000dc565b5b6200018982620000cb565b9050602081019050919050565b60005b83811015620001b657808201518184015260208101905062000199565b83811115620001c6576000848401525b50505050565b6000620001e3620001dd8462000160565b62000141565b905082815260208101848484011115620002025762000201620000c6565b5b6200020f84828562000196565b509392505050565b600082601f8301126200022f576200022e620000c1565b5b815162000241848260208601620001cc565b91505092915050565b6000819050919050565b6200025f816200024a565b81146200026b57600080fd5b50565b6000815190506200027f8162000254565b92915050565b600073ffffffffffffffffffffffffffffffffffffffff82169050919050565b6000620002b28262000285565b9050919050565b620002c481620002a5565b8114620002d057600080fd5b50565b600081519050620002e481620002b9565b92915050565b60008060008060808587031215620003075762000306620000b7565b5b600085015167ffffffffffffffff811115620003285762000327620000bc565b5b620003368782880162000217565b945050602062000349878288016200026e565b935050604085015167ffffffffffffffff8111156200036d576200036c620000bc565b5b6200037b8782880162000217565b92505060606200038e87828801620002d3565b91505092959194509250565b600081519050919050565b7f4e487b7100000000000000000000000000000000000000000000000000000000600052602260045260246000fd5b60006002820490506001821680620003ed57607f821691505b602082108103620004035762000402620003a5565b5b50919050565b60008190508160005260206000209050919050565b60006020601f8301049050919050565b600082821b905092915050565b6000600883026200046d7fffffffffffffffffffffffffffffffffffffffffffffffffffffffffffffffff826200042e565b6200047986836200042e565b95508019841693508086168417925050509392505050565b6000819050919050565b6000620004bc620004b6620004b0846200024a565b62000491565b6200024a565b9050919050565b6000819050919050565b620004d8836200049b565b620004f0620004e782620004c3565b8484546200043b565b825550505050565b600090565b62000507620004f8565b62000514818484620004cd565b505050565b5b818110156200053c5762000530600082620004fd565b6001810190506200051a565b5050565b601f8211156200058b57620005558162000409565b62000560846200041e565b8101602085101562000570578190505b620005886200057f856200041e565b83018262000519565b50505b505050565b600082821c905092915050565b6000620005b06000198460080262000590565b1980831691505092915050565b6000620005cb83836200059d565b9150826002028217905092915050565b620005e6826200039a565b67ffffffffffffffff811115620006025762000601620000dc565b5b6200060e8254620003d4565b6200061b82828562000540565b600060209050601f8311600181146200065357600084156200063e578287015190505b6200064a8582620005bd565b865550620006ba565b601f198416620006638662000409565b60005b828110156200068d5784890151825560018201915060208501945060208101905062000666565b86831015620006ad5784890151620006a9601f8916826200059d565b8355505b6001600288020188555050505b505050505050565b6106ca80620006d26000396000f3fe60806040526004361061004a5760003560e01c80632636b9451461004f57806340ea0a941461007a578063bedab4fe14610084578063c59ee1dc146100af578063cbd60d54146100da575b600080fd5b34801561005b57600080fd5b50610064610105565b60405161007191906103bb565b60405180910390f35b61008261010b565b005b34801561009057600080fd5b50610099610280565b6040516100a6919061046f565b60405180910390f35b3480156100bb57600080fd5b506100c461030e565b6040516100d191906103bb565b60405180910390f35b3480156100e657600080fd5b506100ef610314565b6040516100fc919061046f565b60405180910390f35b60025481565b60035460025411610151576040517f08c379a0000000000000000000000000000000000000000000000000000000008152600401610148906104dd565b60405180910390fd5b6000600460009054906101000a900473ffffffffffffffffffffffffffffffffffffffff1673ffffffffffffffffffffffffffffffffffffffff16346040516101999061052e565b60006040518083038185875af1925050503d80600081146101d6576040519150601f19603f3d011682016040523d82523d6000602084013e6101db565b606091505b505090508061021f576040517f08c379a00000000000000000000000000000000000000000000000000000000081526004016102169061058f565b60405180910390fd5b346003600082825461023191906105de565b9250508190555042343373ffffffffffffffffffffffffffffffffffffffff167fcd909ec339185c4598a4096e174308fbdf136d117f230960f873a2f2e81f63af60405160405180910390a450565b6000805461028d90610663565b80601f01602080910402602001604051908101604052809291908181526020018280546102b990610663565b80156103065780601f106102db57610100808354040283529160200191610306565b820191906000526020600020905b8154815290600101906020018083116102e957829003601f168201915b505050505081565b60035481565b6001805461032190610663565b80601f016020809104026020016040519081016040528092919081815260200182805461034d90610663565b801561039a5780601f1061036f5761010080835404028352916020019161039a565b820191906000526020600020905b81548152906001019060200180831161037d57829003601f168201915b505050505081565b6000819050919050565b6103b5816103a2565b82525050565b60006020820190506103d060008301846103ac565b92915050565b600081519050919050565b600082825260208201905092915050565b60005b838110156104105780820151818401526020810190506103f5565b8381111561041f576000848401525b50505050565b6000601f19601f8301169050919050565b6000610441826103d6565b61044b81856103e1565b935061045b8185602086016103f2565b61046481610425565b840191505092915050565b600060208201905081810360008301526104898184610436565b905092915050565b7f474f414c20414348494556454400000000000000000000000000000000000000600082015250565b60006104c7600d836103e1565b91506104d282610491565b602082019050919050565b600060208201905081810360008301526104f6816104ba565b9050919050565b600081905092915050565b50565b60006105186000836104fd565b915061052382610508565b600082019050919050565b60006105398261050b565b9150819050919050565b7f56414c5545204e4f54205452414e534645525245440000000000000000000000600082015250565b60006105796015836103e1565b915061058482610543565b602082019050919050565b600060208201905081810360008301526105a88161056c565b9050919050565b7f4e487b7100000000000000000000000000000000000000000000000000000000600052601160045260246000fd5b60006105e9826103a2565b91506105f4836103a2565b9250827fffffffffffffffffffffffffffffffffffffffffffffffffffffffffffffffff03821115610629576106286105af565b5b828201905092915050565b7f4e487b7100000000000000000000000000000000000000000000000000000000600052602260045260246000fd5b6000600282049050600182168061067b57607f821691505b60208210810361068e5761068d610634565b5b5091905056fea2646970667358221220b8f1ad73ca639cf6aa19db74b465b9562e26ba99341889d631291269d16a3db164736f6c634300080f0033a2646970667358221220cf2e362bd2fd642720a95ffc1a276d1f26cde31034413d36abafddfb63a435e464736f6c634300080f0033",
  "linkReferences": {},
  "deployedLinkReferences": {}
}